{
  "contractName": "AssetRepo",
  "abi": [
    {
      "constant": true,
      "inputs": [],
      "name": "owner",
      "outputs": [
        {
          "name": "",
          "type": "address"
        }
      ],
      "payable": false,
      "stateMutability": "view",
      "type": "function"
    },
    {
      "constant": false,
      "inputs": [
        {
          "name": "newOwner",
          "type": "address"
        }
      ],
      "name": "transferOwnership",
      "outputs": [],
      "payable": false,
      "stateMutability": "nonpayable",
      "type": "function"
    },
    {
      "anonymous": false,
      "inputs": [
        {
          "indexed": false,
          "name": "id",
          "type": "uint32"
        },
        {
          "indexed": false,
          "name": "assetHash",
          "type": "string"
        },
        {
          "indexed": false,
          "name": "desc",
          "type": "string"
        },
        {
          "indexed": false,
          "name": "tags",
          "type": "string"
        },
        {
          "indexed": false,
          "name": "price",
          "type": "uint32"
        },
        {
          "indexed": false,
          "name": "ownerName",
          "type": "string"
        },
        {
          "indexed": false,
          "name": "ownerEmail",
          "type": "string"
        }
      ],
      "name": "AssetRegisteredEvent",
      "type": "event"
    },
    {
      "anonymous": false,
      "inputs": [
        {
          "indexed": false,
          "name": "id",
          "type": "uint32"
        }
      ],
      "name": "AssetDeletedEvent",
      "type": "event"
    },
    {
      "constant": true,
      "inputs": [
        {
          "name": "assetHash",
          "type": "string"
        }
      ],
      "name": "checkIfRegistered",
      "outputs": [
        {
          "name": "",
          "type": "bool"
        }
      ],
      "payable": false,
      "stateMutability": "view",
      "type": "function"
    },
    {
      "constant": false,
      "inputs": [],
      "name": "calcu",
      "outputs": [
        {
          "name": "",
          "type": "uint32"
        }
      ],
      "payable": false,
      "stateMutability": "nonpayable",
      "type": "function"
    },
    {
      "constant": false,
      "inputs": [],
      "name": "deleteAll",
      "outputs": [],
      "payable": false,
      "stateMutability": "nonpayable",
      "type": "function"
    },
    {
      "constant": false,
      "inputs": [
        {
          "name": "assetHash",
          "type": "string"
        },
        {
          "name": "desc",
          "type": "string"
        },
        {
          "name": "tags",
          "type": "string"
        },
        {
          "name": "price",
          "type": "uint32"
        },
        {
          "name": "ownerName",
          "type": "string"
        },
        {
          "name": "ownerEmail",
          "type": "string"
        }
      ],
      "name": "registerAsset",
      "outputs": [],
      "payable": false,
      "stateMutability": "nonpayable",
      "type": "function"
    },
    {
      "constant": false,
      "inputs": [
        {
          "name": "assetId",
          "type": "uint32"
        },
        {
          "name": "newOwner",
          "type": "address"
        },
        {
          "name": "ownerName",
          "type": "string"
        },
        {
          "name": "ownerEmail",
          "type": "string"
        }
      ],
      "name": "transferAsset",
      "outputs": [],
      "payable": false,
      "stateMutability": "nonpayable",
      "type": "function"
    },
    {
      "constant": true,
      "inputs": [],
      "name": "getAssetCount",
      "outputs": [
        {
          "name": "",
          "type": "uint32"
        }
      ],
      "payable": false,
      "stateMutability": "view",
      "type": "function"
    },
    {
      "constant": true,
      "inputs": [
        {
          "name": "index",
          "type": "uint32"
        }
      ],
      "name": "getAssetId",
      "outputs": [
        {
          "name": "",
          "type": "uint32"
        }
      ],
      "payable": false,
      "stateMutability": "view",
      "type": "function"
    },
    {
      "constant": true,
      "inputs": [],
      "name": "getAssetIds",
      "outputs": [
        {
          "name": "",
          "type": "uint32[]"
        }
      ],
      "payable": false,
      "stateMutability": "view",
      "type": "function"
    },
    {
      "constant": true,
      "inputs": [
        {
          "name": "index",
          "type": "uint32"
        }
      ],
      "name": "getAssetByIndex",
      "outputs": [
        {
          "name": "desc",
          "type": "string"
        },
        {
          "name": "tags",
          "type": "string"
        },
        {
          "name": "id",
          "type": "uint32"
        },
        {
          "name": "price",
          "type": "uint32"
        },
        {
          "name": "assetHash",
          "type": "string"
        }
      ],
      "payable": false,
      "stateMutability": "view",
      "type": "function"
    },
    {
      "constant": true,
      "inputs": [
        {
          "name": "id",
          "type": "uint32"
        }
      ],
      "name": "getAssetById",
      "outputs": [
        {
          "components": [
            {
              "name": "desc",
              "type": "string"
            },
            {
              "name": "tags",
              "type": "string"
            },
            {
              "name": "id",
              "type": "uint32"
            },
            {
              "name": "price",
              "type": "uint32"
            },
            {
              "name": "assetHash",
              "type": "string"
            }
          ],
          "name": "",
          "type": "tuple"
        }
      ],
      "payable": false,
      "stateMutability": "view",
      "type": "function"
    },
    {
      "constant": true,
      "inputs": [],
      "name": "randowms",
      "outputs": [
        {
          "name": "",
          "type": "uint32[]"
        }
      ],
      "payable": false,
      "stateMutability": "view",
      "type": "function"
    },
    {
      "constant": true,
      "inputs": [],
      "name": "random",
      "outputs": [
        {
          "name": "",
          "type": "uint32"
        }
      ],
      "payable": false,
      "stateMutability": "view",
      "type": "function"
    }
  ],
  "bytecode": "0x6080604052336000806101000a81548173ffffffffffffffffffffffffffffffffffffffff021916908373ffffffffffffffffffffffffffffffffffffffff160217905550611ac1806100536000396000f3006080604052600436106100d0576000357c0100000000000000000000000000000000000000000000000000000000900463ffffffff16806320c11fe1146100d557806335eeb03f146101125780634c1644071461013d5780635dd742f9146101545780635ec01e4d146101955780636f3c8003146101c05780638da5cb5b146101eb578063918292c414610216578063a0aead4d1461023f578063c33282d31461026a578063cc3723db146102a7578063dd31fe04146102d0578063e47e1c0b1461030d578063f2fde38b14610338575b600080fd5b3480156100e157600080fd5b506100fc60048036036100f79190810190611535565b610361565b6040516101099190611853565b60405180910390f35b34801561011e57600080fd5b506101276105cd565b6040516101349190611875565b60405180910390f35b34801561014957600080fd5b506101526105d6565b005b34801561016057600080fd5b5061017b60048036036101769190810190611535565b610684565b60405161018c9594939291906117eb565b60405180910390f35b3480156101a157600080fd5b506101aa610963565b6040516101b79190611875565b60405180910390f35b3480156101cc57600080fd5b506101d56109fa565b6040516101e29190611793565b60405180910390f35b3480156101f757600080fd5b50610200610afb565b60405161020d9190611778565b60405180910390f35b34801561022257600080fd5b5061023d6004803603610238919081019061155e565b610b20565b005b34801561024b57600080fd5b50610254610c87565b6040516102619190611875565b60405180910390f35b34801561027657600080fd5b50610291600480360361028c91908101906113f3565b610c94565b60405161029e91906117b5565b60405180910390f35b3480156102b357600080fd5b506102ce60048036036102c99190810190611434565b610d21565b005b3480156102dc57600080fd5b506102f760048036036102f29190810190611535565b61102c565b6040516103049190611875565b60405180910390f35b34801561031957600080fd5b50610322611070565b60405161032f9190611793565b60405180910390f35b34801561034457600080fd5b5061035f600480360361035a91908101906113ca565b6110f4565b005b6103696111c4565b600260008363ffffffff1663ffffffff16815260200190815260200160002060a06040519081016040529081600082018054600181600116156101000203166002900480601f01602080910402602001604051908101604052809291908181526020018280546001816001161561010002031660029004801561042d5780601f106104025761010080835404028352916020019161042d565b820191906000526020600020905b81548152906001019060200180831161041057829003601f168201915b50505050508152602001600182018054600181600116156101000203166002900480601f0160208091040260200160405190810160405280929190818152602001828054600181600116156101000203166002900480156104cf5780601f106104a4576101008083540402835291602001916104cf565b820191906000526020600020905b8154815290600101906020018083116104b257829003601f168201915b505050505081526020016002820160009054906101000a900463ffffffff1663ffffffff1663ffffffff1681526020016002820160049054906101000a900463ffffffff1663ffffffff1663ffffffff168152602001600382018054600181600116156101000203166002900480601f0160208091040260200160405190810160405280929190818152602001828054600181600116156101000203166002900480156105bd5780601f10610592576101008083540402835291602001916105bd565b820191906000526020600020905b8154815290600101906020018083116105a057829003601f168201915b5050505050815250509050919050565b6000600a905090565b6000809054906101000a900473ffffffffffffffffffffffffffffffffffffffff1673ffffffffffffffffffffffffffffffffffffffff163373ffffffffffffffffffffffffffffffffffffffff16141561068257600360006106399190611200565b60006003816106489190611228565b507f285e456e6e2d550e41c6fed21429afce2ccdb0a6bf980e52567e5ab3f19692a4600060405161067991906117d0565b60405180910390a15b565b60608060008060606106946111c4565b6002600060038963ffffffff168154811015156106ad57fe5b90600052602060002090600891828204019190066004029054906101000a900463ffffffff1663ffffffff1663ffffffff16815260200190815260200160002060a06040519081016040529081600082018054600181600116156101000203166002900480601f0160208091040260200160405190810160405280929190818152602001828054600181600116156101000203166002900480156107925780601f1061076757610100808354040283529160200191610792565b820191906000526020600020905b81548152906001019060200180831161077557829003601f168201915b50505050508152602001600182018054600181600116156101000203166002900480601f0160208091040260200160405190810160405280929190818152602001828054600181600116156101000203166002900480156108345780601f1061080957610100808354040283529160200191610834565b820191906000526020600020905b81548152906001019060200180831161081757829003601f168201915b505050505081526020016002820160009054906101000a900463ffffffff1663ffffffff1663ffffffff1681526020016002820160049054906101000a900463ffffffff1663ffffffff1663ffffffff168152602001600382018054600181600116156101000203166002900480601f0160208091040260200160405190810160405280929190818152602001828054600181600116156101000203166002900480156109225780601f106108f757610100808354040283529160200191610922565b820191906000526020600020905b81548152906001019060200180831161090557829003601f168201915b505050505081525050905080600001518160200151826040015183606001518460800151849450839350809050955095509550955095505091939590929450565b60004242014460405160200180838152602001828152602001925050506040516020818303038152906040526040518082805190602001908083835b6020831015156109c4578051825260208201915060208101905060208303925061099f565b6001836020036101000a038019825116818451168082178552505050505050905001915050604051809103902060019004905090565b606060008090505b60648163ffffffff161015610a7857600781610a1c610963565b01908060018154018082558091505090600182039060005260206000209060089182820401919006600402909192909190916101000a81548163ffffffff021916908363ffffffff160217905550508080600101915050610a02565b6007805480602002602001604051908101604052809291908181526020018280548015610af057602002820191906000526020600020906000905b82829054906101000a900463ffffffff1663ffffffff1681526020019060040190602082600301049283019260010382029150808411610ab35790505b505050505091505090565b6000809054906101000a900473ffffffffffffffffffffffffffffffffffffffff1681565b610b28611262565b83816040019073ffffffffffffffffffffffffffffffffffffffff16908173ffffffffffffffffffffffffffffffffffffffff168152505042816060019063ffffffff16908163ffffffff1681525050818160200181905250828160000181905250600560008663ffffffff1663ffffffff16815260200190815260200160002081908060018154018082558091505090600182039060005260206000209060030201600090919290919091506000820151816000019080519060200190610bf19291906112a7565b506020820151816001019080519060200190610c0e9291906112a7565b5060408201518160020160006101000a81548173ffffffffffffffffffffffffffffffffffffffff021916908373ffffffffffffffffffffffffffffffffffffffff16021790555060608201518160020160146101000a81548163ffffffff021916908363ffffffff1602179055505050505050505050565b6000600380549050905090565b6000806004836040518082805190602001908083835b602083101515610ccf5780518252602082019150602081019050602083039250610caa565b6001836020036101000a038019825116818451168082178552505050505050905001915050908152602001604051809103902060009054906101000a900463ffffffff1663ffffffff16119050919050565b610d296111c4565b600380549050610d37610963565b63ffffffff1601816040019063ffffffff16908163ffffffff168152505085816000018190525084816020018190525083816060019063ffffffff16908163ffffffff168152505086816080018190525060038160400151908060018154018082558091505090600182039060005260206000209060089182820401919006600402909192909190916101000a81548163ffffffff021916908363ffffffff1602179055505080604001516004886040518082805190602001908083835b602083101515610e1a5780518252602082019150602081019050602083039250610df5565b6001836020036101000a038019825116818451168082178552505050505050905001915050908152602001604051809103902060006101000a81548163ffffffff021916908363ffffffff1602179055508060026000836040015163ffffffff1663ffffffff1681526020019081526020016000206000820151816000019080519060200190610eab9291906112a7565b506020820151816001019080519060200190610ec89291906112a7565b5060408201518160020160006101000a81548163ffffffff021916908363ffffffff16021790555060608201518160020160046101000a81548163ffffffff021916908363ffffffff1602179055506080820151816003019080519060200190610f339291906112a7565b50905050600160003373ffffffffffffffffffffffffffffffffffffffff1673ffffffffffffffffffffffffffffffffffffffff1681526020019081526020016000206000018160400151908060018154018082558091505090600182039060005260206000209060089182820401919006600402909192909190916101000a81548163ffffffff021916908363ffffffff16021790555050610fdc8160400151338585610b20565b7f0cab84ec62d930420955409b17b2d90ed0e3344b8d140b66ccf70ae345315c88816040015188888888888860405161101b9796959493929190611890565b60405180910390a150505050505050565b600060038263ffffffff1681548110151561104357fe5b90600052602060002090600891828204019190066004029054906101000a900463ffffffff169050919050565b606060038054806020026020016040519081016040528092919081815260200182805480156110ea57602002820191906000526020600020906000905b82829054906101000a900463ffffffff1663ffffffff16815260200190600401906020826003010492830192600103820291508084116110ad5790505b5050505050905090565b6000809054906101000a900473ffffffffffffffffffffffffffffffffffffffff1673ffffffffffffffffffffffffffffffffffffffff163373ffffffffffffffffffffffffffffffffffffffff1614156111c157600073ffffffffffffffffffffffffffffffffffffffff168173ffffffffffffffffffffffffffffffffffffffff161415156111c057806000806101000a81548173ffffffffffffffffffffffffffffffffffffffff021916908373ffffffffffffffffffffffffffffffffffffffff1602179055505b5b50565b60a0604051908101604052806060815260200160608152602001600063ffffffff168152602001600063ffffffff168152602001606081525090565b5080546000825560070160089004906000526020600020908101906112259190611327565b50565b81548183558181111561125d57600701600890048160070160089004836000526020600020918201910161125c9190611327565b5b505050565b6080604051908101604052806060815260200160608152602001600073ffffffffffffffffffffffffffffffffffffffff168152602001600063ffffffff1681525090565b828054600181600116156101000203166002900490600052602060002090601f016020900481019282601f106112e857805160ff1916838001178555611316565b82800160010185558215611316579182015b828111156113155782518255916020019190600101906112fa565b5b5090506113239190611327565b5090565b61134991905b8082111561134557600081600090555060010161132d565b5090565b90565b600061135882356119f2565b905092915050565b600082601f830112151561137357600080fd5b81356113866113818261194f565b611922565b915080825260208301602083018583830111156113a257600080fd5b6113ad838284611a34565b50505092915050565b60006113c28235611a12565b905092915050565b6000602082840312156113dc57600080fd5b60006113ea8482850161134c565b91505092915050565b60006020828403121561140557600080fd5b600082013567ffffffffffffffff81111561141f57600080fd5b61142b84828501611360565b91505092915050565b60008060008060008060c0878903121561144d57600080fd5b600087013567ffffffffffffffff81111561146757600080fd5b61147389828a01611360565b965050602087013567ffffffffffffffff81111561149057600080fd5b61149c89828a01611360565b955050604087013567ffffffffffffffff8111156114b957600080fd5b6114c589828a01611360565b94505060606114d689828a016113b6565b935050608087013567ffffffffffffffff8111156114f357600080fd5b6114ff89828a01611360565b92505060a087013567ffffffffffffffff81111561151c57600080fd5b61152889828a01611360565b9150509295509295509295565b60006020828403121561154757600080fd5b6000611555848285016113b6565b91505092915050565b6000806000806080858703121561157457600080fd5b6000611582878288016113b6565b94505060206115938782880161134c565b935050604085013567ffffffffffffffff8111156115b057600080fd5b6115bc87828801611360565b925050606085013567ffffffffffffffff8111156115d957600080fd5b6115e587828801611360565b91505092959194509250565b6115fa816119b6565b82525050565b600061160b82611988565b80845260208401935061161d8361197b565b60005b8281101561164f57611633868351611769565b61163c826119a9565b9150602086019550600181019050611620565b50849250505092915050565b611664816119d6565b82525050565b61167381611a22565b82525050565b60006116848261199e565b808452611698816020860160208601611a43565b6116a181611a76565b602085010191505092915050565b60006116ba82611993565b8084526116ce816020860160208601611a43565b6116d781611a76565b602085010191505092915050565b600060a083016000830151848203600086015261170282826116af565b9150506020830151848203602086015261171c82826116af565b91505060408301516117316040860182611769565b5060608301516117446060860182611769565b506080830151848203608086015261175c82826116af565b9150508091505092915050565b611772816119e2565b82525050565b600060208201905061178d60008301846115f1565b92915050565b600060208201905081810360008301526117ad8184611600565b905092915050565b60006020820190506117ca600083018461165b565b92915050565b60006020820190506117e5600083018461166a565b92915050565b600060a08201905081810360008301526118058188611679565b905081810360208301526118198187611679565b90506118286040830186611769565b6118356060830185611769565b81810360808301526118478184611679565b90509695505050505050565b6000602082019050818103600083015261186d81846116e5565b905092915050565b600060208201905061188a6000830184611769565b92915050565b600060e0820190506118a5600083018a611769565b81810360208301526118b78189611679565b905081810360408301526118cb8188611679565b905081810360608301526118df8187611679565b90506118ee6080830186611769565b81810360a08301526119008185611679565b905081810360c08301526119148184611679565b905098975050505050505050565b6000604051905081810181811067ffffffffffffffff8211171561194557600080fd5b8060405250919050565b600067ffffffffffffffff82111561196657600080fd5b601f19601f8301169050602081019050919050565b6000602082019050919050565b600081519050919050565b600081519050919050565b600081519050919050565b6000602082019050919050565b600073ffffffffffffffffffffffffffffffffffffffff82169050919050565b60008115159050919050565b600063ffffffff82169050919050565b600073ffffffffffffffffffffffffffffffffffffffff82169050919050565b600063ffffffff82169050919050565b6000611a2d826119e2565b9050919050565b82818337600083830152505050565b60005b83811015611a61578082015181840152602081019050611a46565b83811115611a70576000848401525b50505050565b6000601f19601f83011690509190505600a265627a7a72305820bd716b6e56509b47d86755fce7d0b0202d78a6fd6ad217ad7641e7543a63700c6c6578706572696d656e74616cf50037",
  "source": "\n// https://github.com/Shinobi881/react-dapp-material-ui/blob/master/contracts/Authentication.sol\n\npragma solidity ^0.4.18;\npragma experimental ABIEncoderV2;\n\nimport './zeppelin/ownership/Ownable.sol';\ncontract AssetRepo is Ownable {\n\n  struct Asset{\n\t\tstring desc;\n\t\tstring tags;\n\t\tuint32 id;\n\t\tuint32 price;\n\t\tstring assetHash;\t\t\n\t}\t\n\t\n\t\n\tstruct Transaction {\n\t\tstring id;\n\t\taddress from;\n\t\taddress to;\n\t\tuint32  tr_date;\n\t\tuint32 price;\n\t}\n\n\tstruct AssetOwner{\n\t\tstring name;\n\t\tstring email;\n\t\taddress owner;\n\t\tuint32 ownerSince;\n\t}\n\n\tstruct Data {\n\t\tuint32 [] assets;\n\t\tuint32 [] purchases;\n\t\tuint32 [] sales;\t\n\t}\n\n\t\n   mapping (address => Data) private allData;\n   mapping (uint32 => Asset) private assets;\n   uint32[] assets_key;\n   \n   mapping (string => uint32) private assets_hash;\n   mapping (uint32 => AssetOwner[]) private assetOwners;\n   mapping (uint32 => Transaction) private transactions;\n   \n  function checkIfRegistered(string assetHash) constant returns (bool) {\n    return assets_hash[assetHash] > 0;\n  }\n  \n   \n   function calcu() returns(uint32) {\n     return 10;\n   }\n\n  event AssetRegisteredEvent(uint32 id, string assetHash, string desc, string tags, uint32 price, string ownerName, string ownerEmail);\n  event AssetDeletedEvent(uint32 id);\n  \n  function deleteAll() public onlyOwner {\n\n\t\t  delete assets_key;\n\t\t  assets_key.length = 0;\n\n\t\t//delete allData[msg.sender].assets;\n\t\t//delete allData[msg.sender].purchases;\n\t\t//delete allData[msg.sender].sales;\n\n\t\tAssetDeletedEvent(0);\n  }\n\n\n\n  function registerAsset(string assetHash, string desc, string tags, uint32 price, string ownerName, string ownerEmail) public {\n\t//require(assetHash.length >= 10);\t\t\n\tAsset memory asset;\n\t\n\tasset.id = uint32(random() + assets_key.length); // random number workaround\n\tasset.desc = desc;\n\tasset.tags = tags;\n\tasset.price = price;\n\tasset.assetHash = assetHash;\n\tassets_key.push(asset.id); // solidity does not allow to iterate mappings. Hence storing keys  \n    assets_hash[assetHash] = asset.id; // opps, too much of duplicate data just because no iteration allowed in solidity\n\tassets[asset.id] = asset;\t\n    allData[msg.sender].assets.push(asset.id);\n\ttransferAsset(asset.id, msg.sender, ownerName, ownerEmail);\n\n\t// it is not possible to modify data and return result same time. Alternative is to raise event\n\tAssetRegisteredEvent(asset.id, assetHash, desc, tags, price, ownerName, ownerEmail);\n  }\n  \n  \n  function transferAsset(uint32 assetId, address newOwner, string ownerName, string ownerEmail) public{\n\t  AssetOwner memory nOwner;\n\t  nOwner.owner = newOwner;\n\t  nOwner.ownerSince =uint32(now);\n\t  nOwner.email = ownerEmail;\n\t  nOwner.name = ownerName;\n\n\t  assetOwners[assetId].push(nOwner); \n  }\n\n  \n  function getAssetCount() public view returns (uint32) {\n      return uint32(assets_key.length);\n  }\n  \n  function getAssetId(uint32 index) public view returns (uint32)  {\n\treturn assets_key[index];\n  }\n  \n  \n  \n  function getAssetIds() public view returns (uint32[]) {\n      return assets_key;\n  }\n\n\n  function getAssetByIndex(uint32 index) public view returns (string desc, string tags,uint32 id,uint32 price, string assetHash)  {\n\n\t  Asset memory a = assets[assets_key[index]];\n\n\t  return (a.desc, a.tags, uint32(a.id), uint32(a.price), a.assetHash);\n\t\t\t\n  }\n      \n  function getAssetById(uint32 id) public view returns (Asset)  {\n\treturn assets[id];\t\t\n  }\n  \n\n\n  uint32[] randomnumbers ;\n  \n  function randowms() public view returns (uint32 []){\n     \n     for(uint32 i = 0; i < 100; i++) {\n\t\trandomnumbers.push(random() + i );\t\t\n\t}\n      return randomnumbers;\n  }\n  \n  function random() public view returns (uint32) {\n  // This is very basic random number generator. It returns same number if you call it multiple times in quick succession\t\n\t\treturn uint32(uint32(keccak256(abi.encodePacked(block.timestamp + now, block.difficulty))));\n   }\n   \n}\n",
  "sourcePath": "D:\\Projects\\AssetRegistry\\contracts\\AssetRepo.sol",
  "compiler": {
    "name": "solc",
    "version": "0.4.24+commit.e67f0147.Emscripten.clang"
  },
  "schemaVersion": "2.0.1",
  "updatedAt": "2018-11-08T04:52:58.441Z"
}