{
  "contractName": "AssetRepo",
  "abi": [
    {
      "anonymous": false,
      "inputs": [
        {
          "indexed": false,
          "name": "id",
          "type": "uint32"
        },
        {
          "indexed": false,
          "name": "assetHash",
          "type": "string"
        },
        {
          "indexed": false,
          "name": "desc",
          "type": "string"
        },
        {
          "indexed": false,
          "name": "tags",
          "type": "string"
        },
        {
          "indexed": false,
          "name": "price",
          "type": "uint32"
        },
        {
          "indexed": false,
          "name": "ownerName",
          "type": "string"
        },
        {
          "indexed": false,
          "name": "ownerEmail",
          "type": "string"
        }
      ],
      "name": "AssetRegisteredEvent",
      "type": "event"
    },
    {
      "constant": true,
      "inputs": [
        {
          "name": "assetHash",
          "type": "string"
        }
      ],
      "name": "checkIfRegistered",
      "outputs": [
        {
          "name": "",
          "type": "bool"
        }
      ],
      "payable": false,
      "stateMutability": "view",
      "type": "function"
    },
    {
      "constant": true,
      "inputs": [],
      "name": "calculaions2",
      "outputs": [
        {
          "name": "",
          "type": "uint32"
        }
      ],
      "payable": false,
      "stateMutability": "view",
      "type": "function"
    },
    {
      "constant": false,
      "inputs": [
        {
          "name": "assetHash",
          "type": "string"
        },
        {
          "name": "desc",
          "type": "string"
        },
        {
          "name": "tags",
          "type": "string"
        },
        {
          "name": "price",
          "type": "uint32"
        },
        {
          "name": "ownerName",
          "type": "string"
        },
        {
          "name": "ownerEmail",
          "type": "string"
        }
      ],
      "name": "registerAsset",
      "outputs": [],
      "payable": false,
      "stateMutability": "nonpayable",
      "type": "function"
    },
    {
      "constant": false,
      "inputs": [
        {
          "name": "assetId",
          "type": "uint32"
        },
        {
          "name": "newOwner",
          "type": "address"
        },
        {
          "name": "ownerName",
          "type": "string"
        },
        {
          "name": "ownerEmail",
          "type": "string"
        }
      ],
      "name": "transferAsset",
      "outputs": [],
      "payable": false,
      "stateMutability": "nonpayable",
      "type": "function"
    },
    {
      "constant": true,
      "inputs": [],
      "name": "getAssetCount",
      "outputs": [
        {
          "name": "",
          "type": "uint32"
        }
      ],
      "payable": false,
      "stateMutability": "view",
      "type": "function"
    },
    {
      "constant": true,
      "inputs": [
        {
          "name": "index",
          "type": "uint32"
        }
      ],
      "name": "getAssetId",
      "outputs": [
        {
          "name": "",
          "type": "uint32"
        }
      ],
      "payable": false,
      "stateMutability": "view",
      "type": "function"
    },
    {
      "constant": true,
      "inputs": [],
      "name": "getAssetIds",
      "outputs": [
        {
          "name": "",
          "type": "uint32[]"
        }
      ],
      "payable": false,
      "stateMutability": "view",
      "type": "function"
    },
    {
      "constant": true,
      "inputs": [
        {
          "name": "index",
          "type": "uint32"
        }
      ],
      "name": "getAssetByIndex",
      "outputs": [
        {
          "name": "desc",
          "type": "string"
        },
        {
          "name": "tags",
          "type": "string"
        },
        {
          "name": "id",
          "type": "uint32"
        },
        {
          "name": "price",
          "type": "uint32"
        },
        {
          "name": "assetHash",
          "type": "string"
        }
      ],
      "payable": false,
      "stateMutability": "view",
      "type": "function"
    },
    {
      "constant": true,
      "inputs": [
        {
          "name": "id",
          "type": "uint32"
        }
      ],
      "name": "getAssetById",
      "outputs": [
        {
          "components": [
            {
              "name": "desc",
              "type": "string"
            },
            {
              "name": "tags",
              "type": "string"
            },
            {
              "name": "id",
              "type": "uint32"
            },
            {
              "name": "price",
              "type": "uint32"
            },
            {
              "name": "assetHash",
              "type": "string"
            }
          ],
          "name": "",
          "type": "tuple"
        }
      ],
      "payable": false,
      "stateMutability": "view",
      "type": "function"
    },
    {
      "constant": true,
      "inputs": [],
      "name": "randowms",
      "outputs": [
        {
          "name": "",
          "type": "uint32[]"
        }
      ],
      "payable": false,
      "stateMutability": "view",
      "type": "function"
    },
    {
      "constant": true,
      "inputs": [],
      "name": "random",
      "outputs": [
        {
          "name": "",
          "type": "uint32"
        }
      ],
      "payable": false,
      "stateMutability": "view",
      "type": "function"
    }
  ],
  "bytecode": "0x608060405234801561001057600080fd5b50611780806100206000396000f3006080604052600436106100af576000357c0100000000000000000000000000000000000000000000000000000000900463ffffffff16806320c11fe1146100b45780635dd742f9146100f15780635ec01e4d146101325780636f3c80031461015d5780638a6c743814610188578063918292c4146101b3578063a0aead4d146101dc578063c33282d314610207578063cc3723db14610244578063dd31fe041461026d578063e47e1c0b146102aa575b600080fd5b3480156100c057600080fd5b506100db60048036036100d6919081019061127a565b6102d5565b6040516100e89190611544565b60405180910390f35b3480156100fd57600080fd5b506101186004803603610113919081019061127a565b610541565b6040516101299594939291906114dc565b60405180910390f35b34801561013e57600080fd5b50610147610820565b6040516101549190611566565b60405180910390f35b34801561016957600080fd5b506101726108b7565b60405161017f919061149f565b60405180910390f35b34801561019457600080fd5b5061019d6109b8565b6040516101aa9190611566565b60405180910390f35b3480156101bf57600080fd5b506101da60048036036101d591908101906112a3565b6109c1565b005b3480156101e857600080fd5b506101f1610b28565b6040516101fe9190611566565b60405180910390f35b34801561021357600080fd5b5061022e60048036036102299190810190611138565b610b35565b60405161023b91906114c1565b60405180910390f35b34801561025057600080fd5b5061026b60048036036102669190810190611179565b610bc2565b005b34801561027957600080fd5b50610294600480360361028f919081019061127a565b610ecc565b6040516102a19190611566565b60405180910390f35b3480156102b657600080fd5b506102bf610f10565b6040516102cc919061149f565b60405180910390f35b6102dd610f94565b600160008363ffffffff1663ffffffff16815260200190815260200160002060a06040519081016040529081600082018054600181600116156101000203166002900480601f0160208091040260200160405190810160405280929190818152602001828054600181600116156101000203166002900480156103a15780601f10610376576101008083540402835291602001916103a1565b820191906000526020600020905b81548152906001019060200180831161038457829003601f168201915b50505050508152602001600182018054600181600116156101000203166002900480601f0160208091040260200160405190810160405280929190818152602001828054600181600116156101000203166002900480156104435780601f1061041857610100808354040283529160200191610443565b820191906000526020600020905b81548152906001019060200180831161042657829003601f168201915b505050505081526020016002820160009054906101000a900463ffffffff1663ffffffff1663ffffffff1681526020016002820160049054906101000a900463ffffffff1663ffffffff1663ffffffff168152602001600382018054600181600116156101000203166002900480601f0160208091040260200160405190810160405280929190818152602001828054600181600116156101000203166002900480156105315780601f1061050657610100808354040283529160200191610531565b820191906000526020600020905b81548152906001019060200180831161051457829003601f168201915b5050505050815250509050919050565b6060806000806060610551610f94565b6001600060028963ffffffff1681548110151561056a57fe5b90600052602060002090600891828204019190066004029054906101000a900463ffffffff1663ffffffff1663ffffffff16815260200190815260200160002060a06040519081016040529081600082018054600181600116156101000203166002900480601f01602080910402602001604051908101604052809291908181526020018280546001816001161561010002031660029004801561064f5780601f106106245761010080835404028352916020019161064f565b820191906000526020600020905b81548152906001019060200180831161063257829003601f168201915b50505050508152602001600182018054600181600116156101000203166002900480601f0160208091040260200160405190810160405280929190818152602001828054600181600116156101000203166002900480156106f15780601f106106c6576101008083540402835291602001916106f1565b820191906000526020600020905b8154815290600101906020018083116106d457829003601f168201915b505050505081526020016002820160009054906101000a900463ffffffff1663ffffffff1663ffffffff1681526020016002820160049054906101000a900463ffffffff1663ffffffff1663ffffffff168152602001600382018054600181600116156101000203166002900480601f0160208091040260200160405190810160405280929190818152602001828054600181600116156101000203166002900480156107df5780601f106107b4576101008083540402835291602001916107df565b820191906000526020600020905b8154815290600101906020018083116107c257829003601f168201915b505050505081525050905080600001518160200151826040015183606001518460800151849450839350809050955095509550955095505091939590929450565b60004242014460405160200180838152602001828152602001925050506040516020818303038152906040526040518082805190602001908083835b602083101515610881578051825260208201915060208101905060208303925061085c565b6001836020036101000a038019825116818451168082178552505050505050905001915050604051809103902060019004905090565b606060008090505b60648163ffffffff161015610935576006816108d9610820565b01908060018154018082558091505090600182039060005260206000209060089182820401919006600402909192909190916101000a81548163ffffffff021916908363ffffffff1602179055505080806001019150506108bf565b60068054806020026020016040519081016040528092919081815260200182805480156109ad57602002820191906000526020600020906000905b82829054906101000a900463ffffffff1663ffffffff16815260200190600401906020826003010492830192600103820291508084116109705790505b505050505091505090565b60006017905090565b6109c9610fd0565b83816040019073ffffffffffffffffffffffffffffffffffffffff16908173ffffffffffffffffffffffffffffffffffffffff168152505042816060019063ffffffff16908163ffffffff1681525050818160200181905250828160000181905250600460008663ffffffff1663ffffffff16815260200190815260200160002081908060018154018082558091505090600182039060005260206000209060030201600090919290919091506000820151816000019080519060200190610a92929190611015565b506020820151816001019080519060200190610aaf929190611015565b5060408201518160020160006101000a81548173ffffffffffffffffffffffffffffffffffffffff021916908373ffffffffffffffffffffffffffffffffffffffff16021790555060608201518160020160146101000a81548163ffffffff021916908363ffffffff1602179055505050505050505050565b6000600280549050905090565b6000806003836040518082805190602001908083835b602083101515610b705780518252602082019150602081019050602083039250610b4b565b6001836020036101000a038019825116818451168082178552505050505050905001915050908152602001604051809103902060009054906101000a900463ffffffff1663ffffffff16119050919050565b610bca610f94565b600280549050610bd8610820565b63ffffffff1601816040019063ffffffff16908163ffffffff168152505085816000018190525084816020018190525083816060019063ffffffff16908163ffffffff168152505086816080018190525060028160400151908060018154018082558091505090600182039060005260206000209060089182820401919006600402909192909190916101000a81548163ffffffff021916908363ffffffff1602179055505080604001516003886040518082805190602001908083835b602083101515610cbb5780518252602082019150602081019050602083039250610c96565b6001836020036101000a038019825116818451168082178552505050505050905001915050908152602001604051809103902060006101000a81548163ffffffff021916908363ffffffff1602179055508060016000836040015163ffffffff1663ffffffff1681526020019081526020016000206000820151816000019080519060200190610d4c929190611015565b506020820151816001019080519060200190610d69929190611015565b5060408201518160020160006101000a81548163ffffffff021916908363ffffffff16021790555060608201518160020160046101000a81548163ffffffff021916908363ffffffff1602179055506080820151816003019080519060200190610dd4929190611015565b509050506000803373ffffffffffffffffffffffffffffffffffffffff1673ffffffffffffffffffffffffffffffffffffffff1681526020019081526020016000206000018160400151908060018154018082558091505090600182039060005260206000209060089182820401919006600402909192909190916101000a81548163ffffffff021916908363ffffffff16021790555050610e7c81604001513385856109c1565b7f0cab84ec62d930420955409b17b2d90ed0e3344b8d140b66ccf70ae345315c888160400151888888888888604051610ebb9796959493929190611581565b60405180910390a150505050505050565b600060028263ffffffff16815481101515610ee357fe5b90600052602060002090600891828204019190066004029054906101000a900463ffffffff169050919050565b60606002805480602002602001604051908101604052809291908181526020018280548015610f8a57602002820191906000526020600020906000905b82829054906101000a900463ffffffff1663ffffffff1681526020019060040190602082600301049283019260010382029150808411610f4d5790505b5050505050905090565b60a0604051908101604052806060815260200160608152602001600063ffffffff168152602001600063ffffffff168152602001606081525090565b6080604051908101604052806060815260200160608152602001600073ffffffffffffffffffffffffffffffffffffffff168152602001600063ffffffff1681525090565b828054600181600116156101000203166002900490600052602060002090601f016020900481019282601f1061105657805160ff1916838001178555611084565b82800160010185558215611084579182015b82811115611083578251825591602001919060010190611068565b5b5090506110919190611095565b5090565b6110b791905b808211156110b357600081600090555060010161109b565b5090565b90565b60006110c682356116c3565b905092915050565b600082601f83011215156110e157600080fd5b81356110f46110ef82611640565b611613565b9150808252602083016020830185838301111561111057600080fd5b61111b8382846116f3565b50505092915050565b600061113082356116e3565b905092915050565b60006020828403121561114a57600080fd5b600082013567ffffffffffffffff81111561116457600080fd5b611170848285016110ce565b91505092915050565b60008060008060008060c0878903121561119257600080fd5b600087013567ffffffffffffffff8111156111ac57600080fd5b6111b889828a016110ce565b965050602087013567ffffffffffffffff8111156111d557600080fd5b6111e189828a016110ce565b955050604087013567ffffffffffffffff8111156111fe57600080fd5b61120a89828a016110ce565b945050606061121b89828a01611124565b935050608087013567ffffffffffffffff81111561123857600080fd5b61124489828a016110ce565b92505060a087013567ffffffffffffffff81111561126157600080fd5b61126d89828a016110ce565b9150509295509295509295565b60006020828403121561128c57600080fd5b600061129a84828501611124565b91505092915050565b600080600080608085870312156112b957600080fd5b60006112c787828801611124565b94505060206112d8878288016110ba565b935050604085013567ffffffffffffffff8111156112f557600080fd5b611301878288016110ce565b925050606085013567ffffffffffffffff81111561131e57600080fd5b61132a878288016110ce565b91505092959194509250565b600061134182611679565b8084526020840193506113538361166c565b60005b8281101561138557611369868351611490565b6113728261169a565b9150602086019550600181019050611356565b50849250505092915050565b61139a816116a7565b82525050565b60006113ab8261168f565b8084526113bf816020860160208601611702565b6113c881611735565b602085010191505092915050565b60006113e182611684565b8084526113f5816020860160208601611702565b6113fe81611735565b602085010191505092915050565b600060a083016000830151848203600086015261142982826113d6565b9150506020830151848203602086015261144382826113d6565b91505060408301516114586040860182611490565b50606083015161146b6060860182611490565b506080830151848203608086015261148382826113d6565b9150508091505092915050565b611499816116b3565b82525050565b600060208201905081810360008301526114b98184611336565b905092915050565b60006020820190506114d66000830184611391565b92915050565b600060a08201905081810360008301526114f681886113a0565b9050818103602083015261150a81876113a0565b90506115196040830186611490565b6115266060830185611490565b818103608083015261153881846113a0565b90509695505050505050565b6000602082019050818103600083015261155e818461140c565b905092915050565b600060208201905061157b6000830184611490565b92915050565b600060e082019050611596600083018a611490565b81810360208301526115a881896113a0565b905081810360408301526115bc81886113a0565b905081810360608301526115d081876113a0565b90506115df6080830186611490565b81810360a08301526115f181856113a0565b905081810360c083015261160581846113a0565b905098975050505050505050565b6000604051905081810181811067ffffffffffffffff8211171561163657600080fd5b8060405250919050565b600067ffffffffffffffff82111561165757600080fd5b601f19601f8301169050602081019050919050565b6000602082019050919050565b600081519050919050565b600081519050919050565b600081519050919050565b6000602082019050919050565b60008115159050919050565b600063ffffffff82169050919050565b600073ffffffffffffffffffffffffffffffffffffffff82169050919050565b600063ffffffff82169050919050565b82818337600083830152505050565b60005b83811015611720578082015181840152602081019050611705565b8381111561172f576000848401525b50505050565b6000601f19601f83011690509190505600a265627a7a723058207e0e110c3dd40fa2eabe595d52f5c2c0fc017f83bab9e42120abfbb1a3b8a3636c6578706572696d656e74616cf50037",
  "source": "\npragma solidity ^0.4.18;\n\npragma experimental ABIEncoderV2;\n\ncontract AssetRepo {\n\n  struct Asset{\n\t\tstring desc;\n\t\tstring tags;\n\t\tuint32 id;\n\t\tuint32 price;\n\t\tstring assetHash;\t\t\n\t}\t\n\t\n\t\n\tstruct Transaction {\n\t\tstring id;\n\t\taddress from;\n\t\taddress to;\n\t\tuint32  tr_date;\n\t\tuint32 price;\n\t}\n\n\tstruct AssetOwner{\n\t\tstring name;\n\t\tstring email;\n\t\taddress owner;\n\t\tuint32 ownerSince;\n\t}\n\n\tstruct Data {\n\t\tuint32 [] assets;\n\t\tuint32 [] purchases;\n\t\tuint32 [] sales;\t\n\t}\n\n\t\n   mapping (address => Data) private allData;\n   mapping (uint32 => Asset) private assets;\n   uint32[] assets_key;\n   \n   mapping (string => uint32) private assets_hash;\n   mapping (uint32 => AssetOwner[]) private assetOwners;\n   mapping (uint32 => Transaction) private transactions;\n   \n  function checkIfRegistered(string assetHash) constant returns (bool) {\n    return assets_hash[assetHash] > 0;\n  }\n  \n  function calculaions2() constant returns (uint32) {\n    return 23;\n  }\n   \n   \n  event AssetRegisteredEvent(uint32 id, string assetHash, string desc, string tags, uint32 price, string ownerName, string ownerEmail);\n  \n\n  function registerAsset(string assetHash, string desc, string tags, uint32 price, string ownerName, string ownerEmail) public {\n\t//require(assetHash.length >= 10);\t\t\n\tAsset memory asset;\n\t\n\tasset.id = uint32(random() + assets_key.length); // random number workaround\n\tasset.desc = desc;\n\tasset.tags = tags;\n\tasset.price = price;\n\tasset.assetHash = assetHash;\n\tassets_key.push(asset.id); // solidity does not allow to iterate mappings. Hence storing keys  \n    assets_hash[assetHash] = asset.id; // opps, too much of duplicate data just because no iteration allowed in solidity\n\tassets[asset.id] = asset;\t\n    allData[msg.sender].assets.push(asset.id);\n\ttransferAsset(asset.id, msg.sender, ownerName, ownerEmail);\n\n\t// it is not possible to modify data and return result same time. Alternative is to raise event\n\tAssetRegisteredEvent(asset.id, assetHash, desc, tags, price, ownerName, ownerEmail);\n  }\n  \n  \n  function transferAsset(uint32 assetId, address newOwner, string ownerName, string ownerEmail) public{\n\t  AssetOwner memory nOwner;\n\t  nOwner.owner = newOwner;\n\t  nOwner.ownerSince =uint32(now);\n\t  nOwner.email = ownerEmail;\n\t  nOwner.name = ownerName;\n\n\t  assetOwners[assetId].push(nOwner); \n  }\n\n  \n  function getAssetCount() public view returns (uint32) {\n      return uint32(assets_key.length);\n  }\n  \n  function getAssetId(uint32 index) public view returns (uint32)  {\n\treturn assets_key[index];\n  }\n  \n  \n  \n  function getAssetIds() public view returns (uint32[]) {\n      return assets_key;\n  }\n\n\n  function getAssetByIndex(uint32 index) public view returns (string desc, string tags,uint32 id,uint32 price, string assetHash)  {\n\n\t  Asset memory a = assets[assets_key[index]];\n\n\t  return (a.desc, a.tags, uint32(a.id), uint32(a.price), a.assetHash);\n\t\t\t\n  }\n      \n  function getAssetById(uint32 id) public view returns (Asset)  {\n\treturn assets[id];\t\t\n  }\n  \n  uint32[] randomnumbers ;\n  \n  function randowms() public view returns (uint32 []){\n     \n     for(uint32 i = 0; i < 100; i++) {\n\t\trandomnumbers.push(random() + i );\t\t\n\t}\n      return randomnumbers;\n  }\n  \n  function random() public view returns (uint32) {\n  // This is very basic random number generator. It returns same number if you call it multiple times in quick succession\t\n\t\treturn uint32(uint32(keccak256(abi.encodePacked(block.timestamp + now, block.difficulty))));\n   }\n   \n}\n",
  "sourcePath": "D:\\Projects\\asset-redux\\contracts\\AssetRepo.sol",
  "compiler": {
    "name": "solc",
    "version": "0.4.24+commit.e67f0147.Emscripten.clang"
  },
  "schemaVersion": "2.0.1",
  "updatedAt": "2018-09-02T15:54:14.871Z"
}